:1008D900E4F50CF50D7E087FFFFD1208AE7E097F59
:1008E9001E7D011208AEE4F50E7850E6F581120975
:0608F9005712080080FB0D
:10093D007450250EF8A681050EE50EB40203E4F5FC
:0A094D000E7450250EF8E6F5812225
:1008FF00C290740C44007012C3E50994F4E5089497
:0F090F00014007E4F508F509B29012093D80E3B5
:10091E00C297740C44007012C3E50B94E8E50A9478
:0F092E00034007E4F50AF50BB29712093D80E389
:1008AE00AB07AA06AF02EDC43354E02411F8A60735
:1008BE00AF03EDC43354E02410F8A607EDC433544F
:0B08CE00E02411FF74502DF8A6072253
:100957005389F0438901758A18758CFCC28DD28C36
:07096700D2A9D2AFC2B922F0
:03000B0002085F89
:10085F00C0E0C0D075D000C000758A18758CFCE55B
:10086F000C70170509E50970020508C394F4E50833
:10087F0094014006750800750900E50D7017050B0A
:10088F00E50B7002050AC394E8E50A940340067568
:0F089F000A00750B0012093DD000D0D0D0E03216
:10080000E4F50F20B12A7F0AFE12096E30B1FD7F98
:100810000A7E0012096E050FE50FC394024003E43F
:10082000F50FE50FB40103750C01E50F7002F50C2F
:1008300020B02B7F0A7E0012096E30B1FD7F0A7E48
:100840000012096E050FE50FC394024003E4F50F93
:0E085000E50FB40103750D01E50F7002F50D03
:01085E002277
:10096E00EF1FAC0670011E4C600A7D027CEFDCFEB0
:04097E00DDFC80EC30
:010982002252
:030000000209836F
:0C098300787FE4F6D8FD7581510208D998
:00000001FF
