:100900002020280E1F11111F110E000E1F11111F84
:10091000110E000E111111111F0E000E11111111E7
:100920001F0E002020080E1F111F110E00000E1FA9
:100930001F111F110E000E111111111F0E000E11AB
:060940001111111F0E0051
:0A09B300C2A58F80D2A77F017E004D
:1009BD00E4FDFCC3ED9FEC9E5015E4FBFA0BBB0070
:0F09CD00010AEB646E4A70F50DBD00010C80E469
:0109DC0022F8
:0809F800C2A61209B3C2A72236
:080A0000D2A61209B3C2A7221D
:1009DD007F381209F87F0C1209F87F061209F87F8B
:0B09ED00011209F87F057E000209BD21
:0E094700E54975F008A42428F9E4FAFBAF494D
:060955008B4A8A4B894C1D
:10095B00EF75F008A42440FF1209F8E4F54DAB4AFB
:10096B00AA4BA94C854D82758300120986FF120A8A
:0A097B0000054DE54DC3940840E46B
:01098500224F
:10088C00E4F5481209DDE4F5491209470549E54943
:10089C00C3940440F47F801209F8E4FF120A007F2D
:1008AC0001120A007FC01209F87F02120A007F03AE
:1008BC00120A007FF47E011209BDE54870047F0125
:1008CC0080027F008F48E5486019E4F549E549C38B
:1008DC00940450C1E54975F008A4240812094F0589
:1008EC004980EAE4F549E549C3940450A812094744
:0408FC00054980F238
:03000000020800F3
:0C080000787FE4F6D8FD75814D020847B2
:10098600BB010CE58229F582E5833AF583E0225026
:1009960006E92582F8E622BBFE06E92582F8E22270
:0D09A600E58229F582E5833AF583E493228A
:10080C0002088CE493A3F8E493A34003F68001F26E
:10081C0008DFF48029E493A3F85407240CC8C333ED
:10082C00C4540F4420C8834004F456800146F6DFBC
:10083C00E4800B0102040810204080900900E47E43
:10084C00019360BCA3FF543F30E509541FFEE493B1
:10085C00A360010ECF54C025E060A840B8E493A378
:10086C00FAE493A3F8E493A3C8C582C8CAC583CAA3
:10087C00F0A3C8C582C8CAC583CADFE9DEE780BE5B
:0109460000B0
:00000001FF
